:100000000C9437030C9454030C9454030C943C301C
:100010000C9454030C9454030C9454030C94540304
:100020000C9454030C9454030C94692E0C94512F8B
:100030000C941E2E0C9454030C9454030C945403EF
:100040000C9454030C9454030C9454030C945403D4
:100050000C9454030C94452E0C9454030C945403A8
:100060000C9454030C9454030C9454030C945403B4
:100070000C9454030C9454030C9454030C945403A4
:100080000C9454030C9454030C9454030C94540394
:100090000C9454030C9454030C9454030C94540384
:1000A0000C9454030C9454030C945403050109025A
:1000B000A10185020901A1000509190129081500FE
:1000C0002501950875018102050109300931158165
:1000D000257F95027508810609381581257F9501D0
:1000E00075088106050C0A38021581257F95017572
:1000F000088106C0C005010980A101850319012AF4
:10010000B700150126B700950175108100C0050CD8
:100110000901A101850419012AA002150126A002E6
:10012000950175108100C00660FF0961A101096297
:10013000150026FF00952075088102096315002629
:10014000FF00952075089102C005010906A101056F
:100150000719E029E7150025019508750181029529
:1001600001750881010507190029FF150026FF0008
:100170009506750881000508190129051500250156
:10018000950575019102950175039101C00000006C
:10019000000000000000000000000000000000005F
:1001A000000000000000000000000000000000004F
:1001B000007E0F00D4FFFFFFC700000078000000A2
:1001C00000000000002A2B280000000000000000B2
:1001D000000000000000000029000000002C1E3478
:1001E00020212224342627252E362D3738271E1F7E
:1001F000202122232425263333362E37381F0405A9
:10020000060708090A0B0C0D0E0F10111213141516
:10021000161718191A1B1C1D2F3130232D350405F4
:10022000060708090A0B0C0D0E0F101112131415F6
:10023000161718191A1B1C1D2F3130354C09025B7B
:1002400000030100A0FA09040000010301010009F4
:100250002111010001224400070581030800010962
:100260000401000203000000092111010001222203
:100270000007058203200001070503032000010990
:100280000402000103000000092111010001227B8A
:10029000000705840320000112010002000000088D
:1002A000ABC239390100010203011C037600690069
:1002B00061006C003A0066003600340063003200D2
:1002C00062003300630000001A03460065007200FC
:1002D00072006900730020007300770065006500FC
:1002E00070000000080344005000420000000403B6
:1002F000090414001A000800150017000421160054
:10030000070009000A001D221B0006001900050055
:1003100035212A410000000000001C0018000C00DC
:10032000120013000B000D000E000F00330011002F
:1003300010003600370038322C422B280000000015
:1003400000001E001F00200021002200167C4A0031
:100350004E004B004D00010001000100D100D20011
:10036000010001000000000000002300240025001F
:10037000260027005000510052004F003400CF00EB
:10038000CE00CD00D00028000100010000000000D8
:1003900000003A003B003C003D003E002B00010005
:1003A0000100010001000100010001000100010045
:1003B000010001000000000000003F00400041007B
:1003C000420043002D002E002F00300031022D028C
:1003D0002E0201000100007C01000100000000006D
:1003E0000000010001000100010001000100010006
:1003F00001000100010001000100010001000100F5
:1004000001000100000000000000010001000100E7
:1004100001000100010001000100010001000100D4
:1004200001000100010001000100010000000000C6
:1004300000000100010001000100010001000100B5
:1004400001000100010001000100010001000100A4
:100450000100010000000000000001000100010097
:100460000100010001000100010001000100010084
:100470000100010001000100010001000000000076
:100480000000010001000100010001000100010065
:100490000100010001000100010001000100010054
:1004A0000100010000000000000001000100010047
:1004B0000100010001000100010001000100010034
:1004C0000100010001000100010001000000000026
:1004D0000000FD377A585A000004E6D6B446020000
:1004E000210116000000742FE5A3E003CF015A5D3F
:1004F000003D8889C65436C3174FE4DE89CE35598E
:10050000316D8DD1EB24603C35CB3260F7F2DFD713
:100510003943829177D2FA343CD6949ED06B8EE2E6
:10052000DE6BE0C8659AAE5A900BA913A304CB65A5
:10053000B89D9C42380FDC413C86739B6C47FCB5F0
:1005400027D5362C1D41E3556E4E73ACDB201EBC07
:10055000AA1B3F0C4E2EE9907A7B33986A530F54B6
:100560001EA6A6CD38EE305A7645AA3B53F16987D0
:10057000D9D0D9FA0E6D68D569A80611903009BD99
:100580003F0559A2DFE780341F378DDE465DB00E90
:10059000C45DFEFB65BED2D886B6BD05FF6CE6B570
:1005A00062AADF8CBA059E8B8CC189E7CDCD8E54B3
:1005B0008F45924216C75106A81852FAC8C68BC674
:1005C00022E69B1619D3124E80706703E66EC90DA2
:1005D000D2250AB25162C5BBD6C9704CC6B858AB59
:1005E00028234FC9F5BED49C97CF8B97989AD9E111
:1005F0009CEBE33B26067CE58CAE8A3A116AD76712
:10060000E086F70048C2F04827E62AA3E2C354B0C8
:10061000556F66033C22B320DF989320415796DA4A
:10062000212E5B8416B3C2157359B9B3BCE8C61E3C
:100630005E21C2E25EFA831C1B3DB0A72117C18078
:100640006B5E7CCCBBA450C68278000000003B9C53
:100650006591D7FD7C760001F602D0070000A5D297
:100660004559B1C467FB020000000004595A112427
:100670001FBECFEFDAE0DEBFCDBF11E0A0E0B1E0FA
:10068000EEE9F5E602C005900D92A23EB107D9F75A
:1006900025E0A2EEB1E001C01D92AB32B207E1F756
:1006A0000E949D260C9453320C9400009C019A9554
:1006B00081159F4118F5F32FF270EE27832F81707B
:1006C000732F74706627532F5870442734FF0CC063
:1006D0008295807FEF2B09F08062672B09F08064A0
:1006E000452B69F080680895EF2B09F08260672B35
:1006F00009F08460452B19F08860089580E0089522
:10070000CF93DF93EB010E945603FE010995DF9121
:10071000CF91089580932705089580932805089523
:1007200021E030E001C0220F8A95EAF78091280588
:10073000822B0E948D03089521E030E0A90102C0C0
:10074000440F551F8A95E2F7CA01809590912805BC
:1007500089230E948D030895292F983090F58530C4
:1007600080F590E035E0239F800D911D1124282F06
:10077000277041E001C0440F2A95EAF723E09695DF
:1007800087952A95E1F7FC01EE0FFF1FE80FF91F8F
:10079000E15EFC4F20E030E070E05191DF01CB01E1
:1007A000022E02C0969587950A94E2F78170819592
:1007B0008527842385278E932F5F3F4F2330310574
:1007C00061F70895292F983078F5853068F590E025
:1007D00035E0239F800D911D1124682F677023E061
:1007E000969587952A95E1F7FC01EE0FFF1FE80F1C
:1007F000F91FE15EFC4F40E050E080E0219130E0E5
:10080000062E02C0369527950A94E2F72170332709
:10081000042E01C0220F0A94EAF7822B4F5F5F4F2C
:100820004330510559F7089580E0089590912805C7
:1008300021E030E0F90101C0EE0F8A95EAF7D90115
:1008400002C0AA0FBB1F6A95E2F7EA2B01C0220F74
:100850004A95EAF7892F8E23E81305C0892F822B4A
:100860000E948D0308952095822F8923F9CF8091CE
:10087000CD029091CC02981301C008958F5F8770CC
:10088000FACF909173048095892380937304282F65
:100890002770211111C0891779F090912A0592FFD4
:1008A0000BC08695869586950E949C0310927304D2
:1008B00010927504109274040895982F9095809169
:1008C0007004892380937004089580916F048115CA
:1008D00031F010926F04109277041092760408950C
:1008E0009C01803E910509F448C0D8F481339105FC
:1008F00009F47DC048F48932910509F46DC08A97E6
:1009000009F47CC0C90108958933910551F18238F9
:10091000910539F1C597B1F78091290585FFF2CF8F
:1009200029C0843E910509F447C048F4823E9105F0
:1009300099F1833E9105A9F121EE30E0E3CF863EA7
:10094000910509F444C0873E9105E1F6809129059F
:1009500083FD61C090912A0591FF2BC024EE30E009
:10096000D1CF809129058370811152C080912A05D1
:1009700083FFC8CF29E230E0C5CF8091290580FDF3
:1009800033C090912A0590FFBDCF23EE30E084FF65
:10099000B9CF20E030E0B6CF8091290582FDF5CFB8
:1009A000B1CF8091290582FD30C090912A0590FD3C
:1009B0002FC084FFA7CFEDCF80912A0581FFA2CF62
:1009C0008091290527EE30E084FDE3CF9BCF809115
:1009D000290583FDF7CF96CF8091290585FD1EC09F
:1009E00080912A0583FF8ECF29E330E08BCF809161
:1009F000290586FF87CF2AE230E084CF8091290540
:100A000086FF80CF21E330E07DCF22EE30E07ACF49
:100A100020EE30E077CF26EE30E074CF25E330E0F3
:100A200071CF9091290592FF10C041E0282F2471C9
:100A3000243009F040E031E0282F2871283009F0F7
:100A400030E0431711F02CE0822793FF10C041E003
:100A5000282F2471243109F040E031E0282F28713B
:100A6000283109F030E0431711F02CE08227309153
:100A70002A0530FF10C051E0282F2171213009F0E4
:100A800050E041E0282F2871283009F040E0541749
:100A900011F029E0822731FF10C041E0282F217199
:100AA000213109F040E031E0282F2871283109F088
:100AB00030E0431711F029E0822794FD877E0895E6
:100AC0001F93CF93DF930E947004EC01811522E500
:100AD000920708F055C0811540E5940708F0D1C091
:100AE000803E910520F58D3C910508F0A4C0883A20
:100AF000910570F4853A910508F09AC0813091050E
:100B0000D1F10497813A9105B0F1C0E0D0E033C053
:100B1000885A91094B97C8F7C85AD0E0CC0FDD1F0F
:100B2000CB58DE4F0990D881C02DD46424C08115E4
:100B300050E49507C0F4C11580E2D80708F0B7C0AB
:100B4000C83ED105C0F0CE019A9581159F41E8F6C7
:100B50008D2F0E941105182FCE0199270E94700435
:100B6000EC01D12B08C099270E947004CC27DF70BC
:100B7000C82BD92BD06ACE01DF91CF911F91089558
:100B8000803842E59407C8F5803652E5950708F0AD
:100B90005BC0C03482E5D807D0F4C03292E5D907F3
:100BA00008F04BC08C2F8695869520E2829FC0016D
:100BB0001124C37021E030E0A90102C0440F551F89
:100BC000CA95E2F7EA01C82BD92BDD68D4CF8C2F68
:100BD00086958695877050E2859FC0011124C37069
:100BE00021E030E0A90102C0440F551FCA95E2F789
:100BF000EA01C82BD92BDC68BECF803C52E59507B3
:100C000058F48F71C03AD245A0F590E0982F88270C
:100C1000EC01C46FD06AAFCF805C9245809708F03A
:100C200074CFDC2FCC27CC27DF71C06FD06AA3CF65
:100C3000A497D064A0CFD0659ECFCF71D0E0DC2F39
:100C4000CC27C16FD06A97CF86958695877020E2B2
:100C5000829FC0011124C37021E030E0A90102C0CD
:100C6000440F551FCA95E2F7EA01C82BD92BDA6861
:100C700082CF0E941105C82FD0E0DC2FCC27D06294
:100C80007ACF8F710E94110593E0CC0FDD1F9A95EA
:100C9000E1F7CC27DF70282F30E084FF04C050E15B
:100CA000859F90011124C22BD32BD06964CF8D2F47
:100CB0008F710E941105182FCE0199270E94700490
:100CC000EC01D12BDCCF80E008959C0121158CE74D
:100CD000380741F480919E0290919F02892B11F474
:100CE00020E030E0C9010895E6ECF3E080E090E018
:100CF00064EB75E24AED55E22FE436E277836683D2
:100D00005187408733872287978786870196709619
:100D10008A30910599F708951092B9041092B80499
:100D2000E8E7F4E08581811102C0148216823796CB
:100D300084E0E03BF807B1F70895AC013091BB04C3
:100D40006091BA04232F621301C00895822F90E0AE
:100D5000FC01EE0FFF1FE055FB4F0190F081E02DED
:100D6000E417F50791F467E0649FF001659FF00DCB
:100D70001124E858FB4F41E044832313E6CF01964A
:100D8000837099278093BB0408950196282F2370C0
:100D9000DACFFC018481862381110AC0828181150A
:100DA000B9F06823908593FF05C081E061110FC001
:100DB00080E00895282F22952F708F70282B962F72
:100DC00092959F706F70962B81E02913F1CF089553
:100DD00081E00895282F35EB2303C001112497FFEC
:100DE00004C080589109892F089580589F4FFBCFE8
:100DF0008091300380FD14C081FD14C082FD16C0B7
:100E000080912F03811581F08E3180F420E5829F3F
:100E1000C00111246EE170E00E948E31862F08958A
:100E200084E1089588E2089588E0089580E50895B2
:100E30008091300380FD17C081FD17C082FD19C06D
:100E400080912E03811599F0883298F428E0829FD2
:100E5000C001112468E270E00E948E3161157105B5
:100E600051F0862F089562E0FCCF64E0FACF61E094
:100E7000F8CF68E0F6CF81E00895FA01309709F0E5
:100E8000099508958091B602811559F0E091C2024A
:100E9000F091C302309729F00190F081E02D09957F
:100EA000089580E00895A3E0B0E0E9E5F7E00C9450
:100EB00067319C018091120290911302821793076F
:100EC000A1F03093130220931202E091C202F0913C
:100ED000C302309751F083E089833B832A830084E7
:100EE000F185E02DCE01019609952396E2E00C9460
:100EF0008331A3E0B0E0EFE7F7E00C9467319C01A9
:100F0000809110029091110282179307A1F0309303
:100F1000110220931002E091C202F091C3023097B7
:100F200051F084E089833B832A830084F185E02D9E
:100F3000CE01019609952396E2E00C9483319C0141
:100F4000FC0132968FEF90E04191461751F08F3FB0
:100F500019F4411101C0892F9F5F9630A9F78F3F87
:100F600009F40895280F311D87FD3A95F901628330
:100F70000895E6EEF1E09191891302C0DF011E921F
:100F800091E0EC3EF907B9F70895809101010895C9
:100F90002FB7F89480910C0290910D02A0910E024F
:100FA000B0910F022FBF0895962F20912A0522FF9E
:100FB00010C0682F660F660F660F692B609373046D
:100FC0000E9490030E94C807909375048093740454
:100FD00008950E949003089590916F04292F28236B
:100FE000211561F08095892380936F04811539F074
:100FF0000E94C8078093760490937704089580E058
:1010000090E0F8CF0E94C807209133033091340359
:10101000232B211521F080938F0290939002209131
:10102000350330913603232B211521F080938D0257
:1010300090938E02E091C202F091C302309749F082
:1010400082E0809331030680F781E02D81E393E015
:1010500009950895611509F44BC0E3E3E80FE33106
:1010600050F4F0E0EB5AFD4C0C94A2310E94F806CB
:101070008195809334030E94020808950E94F80627
:10108000F8CF0E94F806819580933303F4CF0E9435
:10109000F806FACF0E94180780933503ECCF0E9420
:1010A00018078195F9CF0E94180781958093360320
:1010B000E2CF0E941807FACF815D990B21E030E062
:1010C00001C0220F8A95EAF780913203822B809328
:1010D0003203D1CF80913003816080933003CBCF36
:1010E000809130038260F9CF809130038460F5CF26
:1010F000409133038D3C59F48091340387FF0DC038
:1011000010923403411559F410922F0308C08E3CFD
:1011100081F48091340318169CF3411581F080917D
:10112000350390913603892B8111A5CF10922E03A0
:10113000A2CF8F3C41F447FFF0CF10923303809150
:1011400034038115E0CF803D19F41416B4F3E5CFD4
:1011500090913503893D29F41916FCF61092350358
:10116000DCCF8A3D19F497FFD8CFF8CF90913603A2
:101170008B3D29F497FFD1CF10923603CECF8C3D13
:1011800019F41916CCF3C9CF9FE2980F983090F458
:10119000815D990B21E030E0B90102C0660F771F35
:1011A0008A95E2F7CB018095909132038923809351
:1011B0003203B3CF8D3D31F4809130038E7F809325
:1011C0003003ABCF8E3D21F4809130038D7FF7CF7C
:1011D0008F3D09F0A2CF809130038B7FF0CF2FB7E6
:1011E000F89460910C0270910D0280910E02909122
:1011F0000F022FBF0895CF92DF92EF92FF9280915E
:10120000B602811559F00E94EF086B017C01C701FD
:10121000B601FF90EF90DF90CF9008950E94EF0805
:10122000C090B802D090B902E090BA02F090BB0230
:10123000C60ED71EE81EF91EEACFCF92DF92EF92BC
:10124000FF92CF93DF93D82FC92FC090C003D090C7
:10125000C103E090C203F090C3030E94EF086C1931
:101260007D098E099F09643F71408105910518F140
:101270000E94EF086B017C0182E390E0A0E0B0E007
:10128000C0928902D0928A02E0928B02F0928C0284
:101290008093850290938602A0938702B093880280
:1012A000D093BE03C093BF03DF91CF91FF90EF9027
:1012B000DF90CF90089584EF91E0A0E0B0E0E0CF20
:1012C00087E797E7909301088093000888E19AE008
:1012D0000FB6F894A895809360000FBE90936000BD
:1012E000FFCF0895FC019B018091020290910302BF
:1012F0008617970740F0672B29F48091E8008E77D6
:101300008093E800C90140E0009741F4411106C014
:101310008091E80082FF2FC080E008952091A00214
:101320002115A9F12530A9F12091E80023FD2DC058
:101330002091E80022FDECCF2091E80020FFE4CFCF
:101340003091F3002091F200009719F02830310518
:1013500058F041E02830310509F040E02091E800E4
:101360002E772093E800D0CF41914093F100019770
:101370002F5F3F4FE9CF8091A002811541F085306A
:1013800041F08091E80083FFC3CF81E0089582E0BF
:10139000089583E008958091FC0187FF13C0809138
:1013A000E80082FF06C08091E8008B778093E80018
:1013B00008958091A0028111F2CF08958091A0023A
:1013C0008115D9F38091E80080FFF8CF8091E80083
:1013D0008E77ECCF2091E4003091E50095E6A901ED
:1013E0002091EC00822F817020FF06C08091E800E0
:1013F00080FF06C080E008952091E80022FD1AC019
:101400008091A002811589F0853089F08091EB00F0
:1014100085FD0FC02091E4003091E500421753078D
:10142000F9F29A95E1F684E0089582E0089583E068
:10143000089581E00895E8EDF0E080818E7F80835B
:101440001092E2001092DA001092E100A0EEB0E0FB
:101450008C9181608C9380818F77808319BCA7EDFC
:10146000B0E08C918E7F8C9380818F7E80831092F0
:10147000FB010895FC01AC014C5F5F4F8FEF61E30E
:101480009191892728E030E0982F990F87FF09C0B4
:10149000892F862721503040B9F7E417F50781F7E7
:1014A0000895892FF7CF982F9093E900891771F04D
:1014B0007091EC002091ED005091F00021FD09C0E9
:1014C0009F5F973089F78093E9000895762F242F46
:1014D00050E03091EB003E7F3093EB003091ED0017
:1014E0003D7F3093ED003091EB0031603093EB00A5
:1014F0007093EC002093ED005093F0002091EE00EB
:1015000027FDDECF0895A0E0B0E0E9E8FAE00C9412
:101510006131C8EDD0E088818F7E8883E7EDF0E00F
:1015200080818160808384E082BF81E08093FB01C1
:1015300088818E7F888302EE10E0F801108210927D
:10154000DA0081EEC82ED12CF601108288818F77C7
:10155000888388818068888388818F7D888319BC8F
:101560001092A0021092FA0110927B021092F901DF
:1015700090EEE92EF12CF70180818B7F80838881AA
:101580008160888342E060E080E00E94530AF601B7
:1015900080818E7F8083F80180818160808380815B
:1015A00088608083F70180818E7F8083888180615D
:1015B0008883CDB7DEB7E8E00C947D31E091CD02B1
:1015C0009091CC0229E0E91302C080E00895AE2F8B
:1015D000B0E02E9FF0011124E253FD4F318136130C
:1015E00006C03081381303C03581341304C0FD01B7
:1015F0003196E770E8CF81E008950F931F93CF9362
:10160000DF938B01EA019091A002943059F5809309
:10161000E9008FEF9091E80095FD06C095ED9A9551
:10162000F1F700008A95B1F78091E80085FF1AC0B4
:101630000E94EA09811111C08091E80085FD06C071
:101640008091E8008E778093E800F2CFF8018191D5
:101650008F018093F100219779F78091E8008E77D0
:101660008093E800DF91CF911F910F910895CF9360
:10167000DF93D82FC92F48E050E0682F792F81E001
:101680000E94FD0A88E0ED2FFC2FA4E0B2E001905B
:101690000D928A95E1F7DF91CF910895BC0146E064
:1016A00050E084E00E94FD0A0895BC0143E050E050
:1016B00084E00E94FD0A0895A0E0B0E0E2E6FBE0CD
:1016C0000C945F31182F092FB62EA72E7A01809126
:1016D000F6019AE0C92ED12C8A3018F0CC24C3949C
:1016E000D12CC1E0D0E06B2D7A2D812F902FF70106
:1016F0000995811116C02196CC16DD0694F0CC9F79
:10170000C001CD9F900D900D112420E030E045E305
:101710004A95F1F700002F5F3F4F28173907B9F7B7
:10172000E2CFCDB7DEB7EAE00C947B3190912A0589
:1017300092FB222720F9281779F080FB92F99093E9
:101740002A056091290570912A0584E090E00E94A5
:10175000353282E00E944104089560916C048CE06F
:1017600090E00E94173208951F93CF93DF93962F36
:10177000122F632F8630D8F49830C8F44530B8F46F
:10178000C42FD0E0CC0FDD1F2AE0929FC00DD11DE9
:10179000112490E5899FC00DD11D1124CE0188969A
:1017A0000E941732612FCE0189960E941732DF9175
:1017B000CF911F910895CF93DF93CCE0D3E060E009
:1017C000CE010E9417322196C11584E0D807B9F7DF
:1017D000DF91CF910895CF93C82F61EC811101C0A3
:1017E0006FEF84E290E00E9417326EE4C11101C0F5
:1017F0006FEF85E290E00E94173266EBC11101C0E5
:101800006FEF86E290E00E941732CF9108950F9318
:101810001F93CF93DF93863030F5683020F5453045
:1018200010F5C42FD0E0CC0FDD1F2AE0629FC00D61
:10183000D11D112430E5839FC00DD11D1124CE018F
:1018400088960E94F931082F10E0102F0027CE0152
:1018500089960E94F9319801282BC901DF91CF9117
:101860001F910F91089580E090E0F8CF462F672FE9
:101870002091BE023091BF02232B91F4703F39F4C6
:10188000403F71F48091BC029091BD020895783080
:1018900038F4453028F4863018F40E94070C089577
:1018A00080E090E00895A0E0B0E0E9E5FCE00C9471
:1018B00062317C010091280580912705082BC5E045
:1018C000D0E010E0C8010C2E02C0959587950A94CF
:1018D000E2F780FD09C02197A8F7D12C8D2DCDB757
:1018E000DEB7E7E00C947E31DC2EB7018C2F0E942E
:1018F000360C0E946005019771F3F0CFEF92FF92D2
:101900000F931F93CF93FC010781108501151105DB
:10191000A1F48581E080F1808115B1F06115A1F01D
:10192000C7010E94530CC82F682FC7010E94AC0347
:10193000B7018C2F0E94360C8C01C801CF911F91EA
:101940000F91FF90EF900895C7010E94E203C82F06
:10195000EFCFCF93DF93D82FC92F0E94530C6D2F59
:101960007C2F0E94360C0E946005DF91CF91089574
:10197000FC0184818115B1F0878190850097A1F0E9
:101980000E946005282F92959F709630C1F088F4D0
:10199000925F9F70923030F4203FD9F060F481E084
:1019A000283E60F080E00895808191810E94A90C1A
:1019B000E9CF9A5FEECF81E0243FA1F7089591E04F
:1019C000813F09F090E081E0283E08F080E0892B1B
:1019D000089581E0089584E290E00E94F931813C0D
:1019E00089F485E290E00E94F9318E3459F486E260
:1019F00090E00E94F93191E0863B09F090E0892F58
:101A00008170089580E0FCCFCF93DF93C091700484
:101A100080917204C82B80916F048115F9F00E94A7
:101A2000C8072091760430917704821B930B883885
:101A3000934110F00E946504D0916F0420E086EE7F
:101A400091E0FC013081019631112F5F31E08C3E35
:101A50009307B9F721110E946504CD2B80914203B1
:101A600080958C2390914103892B8093E40148E079
:101A700050E064EC72E084EE91E00E94CC31892B5E
:101A8000A9F088E0E4EEF1E0A4ECB2E001900D9260
:101A90008A95E1F7E091C202F091C302309731F0EC
:101AA0000280F381E02D84EE91E00995DF91CF91E2
:101AB0000895CF9310927004C6E0E6EEF1E0DF01E6
:101AC0008C2F1D928A95E9F780E090E00E945307E1
:101AD00080E090E00E947907109272040E94040D49
:101AE000E1E3F3E0DF011D92CA95E9F710922F03BD
:101AF00010922E03109230030E940208CF91089595
:101B00000E94590D2FEF84E39CE0215080409040CB
:101B1000E1F700C0000088E19AE00FB6F894A895BC
:101B2000809360000FBE90936000FFCFAAE2B0E008
:101B3000ECE9FDE00C9466318CEF91E0FC0101963C
:101B40002091F100208322E084309207B9F7809140
:101B5000FD01893009F45AC0C8F4823009F4B7C0D5
:101B6000833009F486C0813091F18091E80083FFD1
:101B7000EBC08091FC019091FD019A3008F0E4C027
:101B8000E92FF0E0E859FD4C0C94A2318A3009F4B9
:101B90008DC08B3051F78091FC01813231F78091FB
:101BA000000290910102892B01F78091E800877F64
:101BB0008093E8000E94CB0981E09091FE01911191
:101BC00001C080E0809302010E94590DCECF809128
:101BD000FC01813A51F68091E800877F8093E8000C
:101BE0008091000290910102892B61F060E080E019
:101BF00090E070E00E9472098091E8008B778093FA
:101C0000E800B3CF68E084E092E0F3CF8091FC017C
:101C1000813209F0AACF80910002909101028D7F5C
:101C2000892B09F0A2CF8091E800877F8093E8009C
:101C30008091E80082FF18C09091F3008091F2003B
:101C4000029731F48091F100813011F0863021F457
:101C50008091F100809301018091E8008B7780935F
:101C6000E8000E94CB0981CF8091A0028111E0CFD2
:101C70007CCF8091FC01813A09F077CF80910002FE
:101C800090910102892B09F070CF8091E800877F45
:101C90008093E8008091E80080FFFCCF80910201F2
:101CA0008093F1008091E8008E77D9CF8091FC017C
:101CB000813209F05ACF8091E800877F8093E80055
:101CC0000E94CB098091FF01809300014ECF80914B
:101CD000FC01813A09F049CF8091E800877F809329
:101CE000E8008091E80080FFFCCF80910001D8CF10
:101CF000803889F0823841F5809100028F708730FA
:101D000018F58093E9008091EB0085FB882780F926
:101D10001092E90006C080917B02880F9091F90132
:101D2000892B9091E800977F9093E8008093F100D1
:101D30001092F1008091E8008E7723C0811116C0C7
:101D40008091FE01813011F18091E80083FF0AC08B
:101D50008091E800877F8093E8008091EB008062AB
:101D60008093EB00AA96E3E00C948231823061F715
:101D70008091FE01811589F01092E9008091E800C0
:101D8000877F8093E8000E94CB09DECF81E093300B
:101D900009F080E080937B02EFCF809100028F708A
:101DA0002FEF280F263080F68093E9002091EB007A
:101DB00020FFE2CF933031F48091EB00806280937A
:101DC000EB00DACF9091EB0090619093EB0021E073
:101DD00030E0A90102C0440F551F8A95E2F74093F5
:101DE000EA001092EA008091EB008860E8CF811150
:101DF000ABCF1091FE011F778091E3008078812B9B
:101E00008093E3008091E800877F8093E8000E9440
:101E1000CB098091E80080FFFCCF8091E3008068CF
:101E20008093E30083E0111101C082E08093A0025F
:101E30008BCF8058823008F087CF8091FE0190913F
:101E4000FF018C3D53E0950799F583E08A838AE290
:101E500089834FB7F894DE01139620E03EE051E20B
:101E6000E32FF0E050935700849120FF03C0829548
:101E70008F703F5F8F708A30C8F0895C90E08D93DF
:101E80009D932F5F243161F74FBF8091E800877FDA
:101E90008093E8006AE270E0CE0101960E94720928
:101EA0008091E8008B778093E8004ECF805DE6CF8D
:101EB000292F33272330310509F44EC078F521301E
:101EC000310509F488C08BE590E0EDE3F2E02230C3
:101ED000310509F039CF2091E800277F2093E800F1
:101EE00020910202309103028217930708F49C01AB
:101EF00040E02115310509F073C0411171C0809196
:101F0000E80082FDCDCF8091A002811549F2853095
:101F100039F28091E80083FFF2CFC2CF80910002B6
:101F2000909101022132310509F446C02232310577
:101F300009F00ACF8330910508F006CFFC01EE0FBF
:101F4000FF1FE35AFE4F0190F081E02D865A9E4F0D
:101F5000DC018C9190E010C09C013327823021F18C
:101F60002330310568F4232BB9F4EEEEF2E0E4916E
:101F70008E2F90E0EEEEF2E0009709F4E5CEABCFC5
:101F80002330310509F0E0CEEAEAF2E0E4918E2F49
:101F900090E0EAEAF2E0F0CFE4EEF2E0E4918E2F96
:101FA00090E0E4EEF2E0E8CFE8ECF2E0E4918E2F8E
:101FB00090E0E8ECF2E0E0CF8330910508F0C4CE89
:101FC000FC01EE0FFF1FED59FE4F0190F081E02D57
:101FD00089E090E080CF82E190E0E8E9F2E07BCF19
:101FE0008091A002811509F45BCF853009F458CFA8
:101FF0008091E80083FD54CF8091E80082FD7FCF7F
:102000008091E80080FF75CF9091F3008091F200FD
:102010002115310519F08830910550F041E00897FD
:1020200009F040E08091E8008E778093E80061CF6E
:1020300044914093F1003196215031090196E8CF47
:10204000803809F081CE8091E800877F8093E80096
:102050008091FA018093F1006DCE811175CE1091BF
:10206000FE01123008F070CE8091E800877F8093E7
:10207000E8001093FA010E94CB091115F9F084E0F1
:102080008093A00242E061EC81E00E94530A42E2A8
:1020900061EC84E00E94530A42E261EC82E00E941B
:1020A000530A42E260EC83E00E94530A8091A0024E
:1020B000843051F482E08093030146CE8091E300A6
:1020C00087FDDDCF81E0DCCF81E0F5CFCF93C82F56
:1020D0008115B1F08CEF8C0F813AA0F4E6EEF1E0BF
:1020E0008CEE91E02191C21709F43FC08E179F0733
:1020F000C9F76C2F84EE91E00E949F070E94040DA7
:10210000CF91089580E28C0F883068F4C77021E089
:1021100030E001C0220FCA95EAF780917004822B4B
:1021200080937004EBCF8BE58C0F833038F42C2F29
:102130002452330BC9010E945307E2CFE8E5EC0FAC
:10214000EB3150F4F0E0EE0FFF1FE555FE4F8081BC
:1021500091810E947907D4CF83E38C0F833180F67D
:1021600061E08C2F0E942A08CBCF8C2F0E94B907E8
:102170000E94040DBECFCF93DF93EC01805E9109E6
:10218000089720F065E372E1209711F464E272E1B0
:10219000CE010E9480038C2F0E946610DF91CF91A8
:1021A0000895811581F19CEF980F913A28F40E94CF
:1021B000B9070E94040D089590E2980F983050F4EA
:1021C000877091E001C0990F8A95EAF7892F0E94E4
:1021D0005D04EFCF9BE5980F933028F480E090E00A
:1021E0000E945307089598E5980F9B3128F480E0EA
:1021F00090E00E947907089593E3980F933118F4C3
:1022000060E00E942A080895CF93DF93EC010E94BA
:10221000D110CE01805E9109089720F06FE372E142
:10222000209711F46EE272E1CE010E948003DF91EB
:10223000CF9108950F931F93CF93DF93D82FC92F7A
:102240008B010E94BB100115110549F48D2F9C2FA5
:102250000E940411DF91CF911F910F9108958FE992
:102260009FE00197F1F700C0000001501109EBCF8A
:102270000F931F93CF93C82F8B010E9466100115F7
:10228000110539F48C2F0E94D110CF911F910F911D
:1022900008958FE99FE00197F1F700C00000015019
:1022A0001109EDCF60E570E0893311F060E070E076
:1022B0000E9438110895A0E0B0E0E1E6F1E10C944D
:1022C0006231E82FF0E0E354FE4FD490282F26959A
:1022D0002695269530E0F901E355FE4F049187706D
:1022E00010E0082E02C0159507950A94E2F70170D8
:1022F0001127F901E356FE4FE490F12C082E02C09D
:10230000F594E7940A94E2F7E0FAEE24FF24E0F86B
:10231000F901E357FE4FC491D0E002C0D595C795AF
:102320008A95E2F7C170DD270115110519F081EEDC
:102330000E946610E114F10419F086EE0E94661006
:1023400060E070E08D2D0E943811E114F10419F065
:1023500086EE0E94D1100115110519F081EE0E9440
:10236000D110CD2B19F08CE20E945211CDB7DEB7FF
:10237000E7E00C947E3190916C04923071F48A30D5
:1023800050F4875F90E06AE070E00E948E31875AD7
:102390000E94521108958650FBCF96EF980F963009
:1023A00020F0805D0E945B110895895AFBCFCF9386
:1023B000DF93EC0188818115F1F0813009F040C094
:1023C0008981813029F48A8123960E945211F2CFAB
:1023D000823029F48A8123960E946610EBCF8330E5
:1023E00029F48A8123960E94D110E4CF843031F001
:1023F00022968111DFCFDF91CF9108958A812396B4
:1024000020E030E09AE0682F6053770BAB016A3030
:10241000710560F02115310561F3EFE9FFE03197B7
:10242000F1F700C0000021503109F4CF929FB001B4
:10243000939F700D11249A01260F371F8991E3CFC6
:1024400021960E945B11B6CF811539F090917004EE
:10245000892B809370040E94040D0895811521F04A
:102460000E945D040E94040D0895811539F0909139
:102470007204892B809372040E94040D08958115C3
:1024800041F08095909172048923809372040E9498
:10249000040D0895CF93DF93EC014A855B856E852B
:1024A0007F850E943D079B819095809172048923CE
:1024B000809372048C810E945D040E94040D86E06A
:1024C000FE0111928A95E9F7DF91CF910895CF939C
:1024D000DF93EC018D8181FD17C082608D83809137
:1024E00072049B81892B80937204809170049C817B
:1024F000892B809370040E94040D488559856E8550
:102500007F85CE010E943D071092670410926604F9
:102510008D8180FD03C0CE010E944A12DF91CF91D0
:1025200008951F93CF93DF93182FA091BC03B09110
:10253000BD03109709F44AC01092BF031092BE0366
:1025400010924203109241031696CD91DC91179799
:10255000CE019A9581159F4108F4D07ED1E0C1113A
:1025600001C0D0E01996ED91FC911A97309731F0A7
:102570001B966D917C9180E00995D823D11539F097
:102580008CEF8C0F813A30F58C2F0E94B907111512
:10259000A9F0E091BC03F091BD03808584FD0EC0DD
:1025A0008091BB03811551F0808191819C01215064
:1025B00031092F333E4710F40E941D090E94040D7B
:1025C0001092BD031092BC031092BB03DF91CF9118
:1025D0001F9108950E94040D8C2F0E94D110D7CF17
:1025E000ACE0B0E0E6EFF2E10C945F31FE01319631
:1025F00088E0DF011D928A95E9F744E051E06E0121
:10260000B5E0CB0ED11C8F01BA01AA24A394B12C42
:1026100030E0DB012D91BD012F3F79F0A22FA29573
:10262000AF70A05EB0E08C9190E02F7002C09595E5
:1026300087952A95E2F780FF6AC080E0B82A3F5F5D
:10264000AA0C353031F7B1924B5F5F4FEC15FD05A9
:10265000D9F648E050E0B80180E792E00E94CC3122
:102660007C01892B41F088E0F801A0E7B2E00190FD
:102670000D928A95E1F70091790210E00A561D4FFC
:10268000EF2809F446C081E08093F5010E94C80755
:102690009093F4018093F3018091B602811509F4BF
:1026A00093C07E01B9E0EB0EF11C84E0F7011192BA
:1026B0008A95E9F78091F6018A3008F04EC04FE71D
:1026C00054E1B701C8010E945C0B811509F46AC08E
:1026D00044E254E1B701C8010E945C0B811509F482
:1026E00061C01092F6018091780290E044E050E0E1
:1026F000B7018A569D4F0E94CC3121E02093F20110
:10270000892B09F041C02C96EAE00C947B318A2D8C
:1027100095CF8091F501811509F4BECFE090F301CA
:10272000F090F4010E94C8078E199F09059708F4DC
:10273000B3CF44E050E060E772E0C8010E94CC31C2
:10274000892B41F084E0E0E7F2E0D80101900D929E
:102750008A95E1F71092F5019FCFC090F001D090DB
:10276000F1010E94C8078C199D09843F914008F02F
:10277000A6CF8091F201811531F284E0D7011D923C
:102780008A95E9F71092F201E0917802F0E0EA56BA
:10279000FD4F89859A85AB85BC8580839183A28313
:1027A000B383B1CF8091F6018F3F39F40E94C807FF
:1027B0009093F1018093F001DCCF8F5F8093F6015D
:1027C0008A3008F490CFF2CFF80180819181A28104
:1027D000B3818093A6029093A702A093A802B0931E
:1027E000A90286EA92E00E943A0A8093A502C0906C
:1027F000AA02D090AB02E090AC02F090AD028091C2
:10280000EC019091ED01A091EE01B091EF01C8169D
:10281000D906EA06FB0609F476CFC092EC01D09205
:10282000ED01E092EE01F092EF010E94EF08C61A6E
:10283000D70AE80AF90AC092B802D092B902E09227
:10284000BA02F092BB025FCFCF92DF92EF92FF927B
:102850001F93CF93DF9300D000D0CDB7DEB7C090E9
:10286000A102D090A202E090A302F090A4020E94E4
:10287000EF086C197D098E099F0911E06436710516
:102880008105910578F10E94FB08DC01CB010296DD
:10289000A11DB11D89839A83AB83BC8380913401D0
:1028A000909135018B559D4F20913301422F50E07F
:1028B000253010F044E050E0BE016F5F7F4F0E9472
:1028C000D93182E090E00E94E330182F811551F059
:1028D0000E94EF086093A1027093A2028093A3026A
:1028E0009093A402812F0F900F900F900F90DF9183
:1028F000CF911F91FF90EF90DF90CF9008958F922E
:102900009F92AF92BF92EF92FF921F93CF93DF936C
:1029100000D000D00F92CDB7DEB77B0180E090E011
:102920000E94E330182F811509F464C080912601BC
:10293000482F50E0811511F041E050E060912701EF
:10294000709128016B557D4FCE0105960E94D931BB
:102950008090B2029090B302A090B402B090B50201
:102960000E94EF08681979098A099B096436710584
:102970008105910538F486EA92E00E943A0A9D8129
:102980008917C1F181E090E00E94E330811509F4DC
:102990003FC080912E01482F50E0853010F044E078
:1029A00050E060912F01709130016B557D4FCE0149
:1029B00001960E94D93186EA92E00E943A0A9D81EE
:1029C000891326C00E94EF086093B2027093B3028D
:1029D0008093B4029093B50289819A81AB81BC81C6
:1029E0008093AE029093AF02A093B002B093B10275
:1029F00081E00FC08091A6029091A702A091A80249
:102A0000B091A90289839A83AB83BC831111E4CF6F
:102A100080E04091AE025091AF026091B00270919F
:102A2000B102F70140835183628373830F900F904B
:102A30000F900F900F90DF91CF911F91FF90EF902B
:102A4000BF90AF909F908F900895AEE1B0E0EBE221
:102A5000F5E10C945C31A0909E02B0909F0281E061
:102A600090E090939F0280939E02812C912CE12C08
:102A70006401F12C15C0F80125913591472D6F2D7A
:102A80008E2D0E94B40B0E5F1F4F739485E0781259
:102A9000F2CFA5E0CA0ED11CF394B8E0FB1639F0D2
:102AA0008601000F111F0E501D4F712CE4CFE394CF
:102AB00088E2880E911CA6E0EA12DACF1A82198207
:102AC0001C821B821E821D8218861F8288EC90E069
:102AD0009A87898708E012E04AE050E0B801CE0109
:102AE00001960E943B32065F1F4F0C36B2E01B0777
:102AF00099F7FE013B968AE0DF011D928A95E9F77E
:102B00007F014AE050E0B801C7010E943B32065FF6
:102B10001F4F0C3BB2E01B07A1F7FE01759689E041
:102B2000DF011D928A95E9F78FEF9FEF9A8F898FCA
:102B300087E08E8F7F014AE050E0B801C7010E9414
:102B40003B32065F1F4F0C30B3E01B07A1F7B0927A
:102B50009F02A0929E026E96EDE00C94783180E088
:102B60000E94EB0B60E087E290E00E9417320E9427
:102B700025150E94DB0B81E00E94EB0B0895AAE073
:102B8000B0E0E5ECF5E10C946131E6E1F2E080E5DE
:102B9000DF011D928A95E9F7E8E7F4E088E3DF01B9
:102BA0001D928A95E9F786E1C82E82E0D82E7F0132
:102BB0000CE612E0F701D182C0824AE050E0B80191
:102BC000CE0101960E94E93188E0FE013196D601DE
:102BD00001900D928A95E1F789859A85D701139620
:102BE0009C938E931297BAE0CB0ED11CE7E0EE0EC9
:102BF000F11C065F1F4F0C3BF2E01F07D9F62A9627
:102C0000E8E00C947D31AAE0B0E0E9E0F6E10C9454
:102C10005F3103E413E08CEBE82E82E0F82E97E0BE
:102C2000B92E25E1C22E22E0D22EAA24A3944AE096
:102C300050E0B701CE0101960E94E931F8013896C3
:102C4000DF018B2D1D928A95E9F789819A81D80140
:102C500011969C938E938F8112968C9312978D81EF
:102C600013968C931397888514968C931497898563
:102C700015968C9315978B819C8117969C938E93B8
:102C800016978A8587FD04C01E96DC92CE921D970A
:102C900080FF02C0F801A08681FF07C0D801189606
:102CA0009C911897926018969C9382FF04C0F8013B
:102CB00090859460908783FF07C0D80118969C91F7
:102CC0001897986018969C9384FF04C0F80190852B
:102CD0009061908785FF07C0D80118968C9118974E
:102CE000806218968C93BAE0EB0EF11C015F1F4FC7
:102CF000ECE0EE16E3E0FE0609F099CF2A96EAE052
:102D00000C947B31282FCB012A3070F44AE0249FA9
:102D100090011124B901685F7D4F4AE050E00E94A4
:102D2000E93180E090E008958FEF9FEF0895AAE0E9
:102D3000B0E0EDE9F6E10C9467319C0197558115FF
:102D4000914070F4BE016F5F7F4F822F0E94821608
:102D5000892B31F489859A852A96E2E00C94833197
:102D600088EC90E0F9CFA0E0B0E0E9EBF6E10C945C
:102D70006231162FD72FC42FD22E8115A9F0409380
:102D80006D040E94C8079093F8018093F701C77003
:102D900081E001C0880FCA95EAF70E942412CDB7DE
:102DA000DEB7E7E00C947E3190916D04491338C092
:102DB000E090F701F090F8010E94C8079C012E19DD
:102DC0003F097901812F9D2F0E949716E816F90679
:102DD00038F5D0E2DD0DCD15A1F0C77011E0812FDF
:102DE00001C0880FCA95EAF70E942E12D83048F425
:102DF0008D2D877001C0110F8A95EAF7812F0E94EF
:102E00002412802F0E945211D83048F62D2D2770A1
:102E100081E001C0880F2A95EAF70E942E12BFCFE9
:102E2000C77081E001C0880FCA95EAF7F6CFAAE023
:102E3000B0E0EDE1F7E10C9458317C01DC0114962F
:102E40008C91811509F466C161E0C7010E947E0C76
:102E50008C01F7018581811521F1809166049091A3
:102E600067040097F1F008171907D9F0FC01FF2754
:102E70008A3008F067C0A4E0EE0FFF1FAA95E1F7C3
:102E8000EA53FC4F85818460858311830083CF01E1
:102E90000E9467121092720461E0C7010E947E0CCA
:102EA0008C01D70115968C91811509F4BEC0C8011B
:102EB00097578038910508F0EAC0D02EB0E10B1783
:102EC00008F017C18FEF93E00E94F931811111C111
:102ED0000CE013E0D11039C0F4E06F2E9E012F5F9B
:102EE0003F4F5901D501E62D1D92EA95E9F74801BA
:102EF000FFEF8F1A9F0AC8010E94F931898381155B
:102F000009F4F7C0813009F08AC0680122E0C20EDE
:102F1000D11CC4010E94F931782E8A83811509F4ED
:102F2000E8C08FEF870D8330F0F4C6010E94F931BD
:102F30008B83811519F0C5010E94D7110D5F1F4FBA
:102F4000680171C0E0E0F0E09DCF0115E4E01E07EC
:102F500009F4CFC0C8010E94F9310F5F1F4F8111E2
:102F6000F4CFDA94B7CF8BEF870D833060F548014B
:102F700043E0840E911CC6010E94F9318B838115B8
:102F800009F450C00C5F1F4F6801C4010E94F93161
:102F90008C83811509F447C08B819C818130AFEF10
:102FA0009A0710F0982F8827B6E07B1631F0E7E0FB
:102FB0007E1631F00E94A72536C00E945F2533C0DF
:102FC0000E94832530C0F4E07F122DC0C6010E940C
:102FD000F931982E680124E0C20ED11CC801039675
:102FE0000E94F931282F911409F483C0811509F446
:102FF00080C02150330B4FEF429FC001439F900D83
:103000001124492D4150550B840F951F019758F0FD
:10301000AFE9BFE01197F1F700C00000F7CFC5019D
:103020000E94D711640186015DCF6801E7E5DE1AD1
:10303000C114F1E0DF0658F567E373E08C2D0E94C0
:103040008216892B21F5C60174E0880F991F7A95A5
:10305000E1F7FC01EA53FC4F22812130A1F52091D8
:10306000370330913803232B91F0209139033091AD
:103070003A03232B61F020913B0330913C034091B4
:103080003D0350913E03242B352B232B21F1D701F7
:1030900015963C90311409F441C00E35BCE71B076E
:1030A00029F10F35ECE71E0741F00D35FCE71F074E
:1030B000A9F580913B018115C9F010923B0180E098
:1030C0000E94911216C0223011F720913B033091DB
:1030D0003C03232BE1F2FC01E553FC4F20812E7FC2
:1030E00020838A539C4F0E946712D1CF81E0809346
:1030F0003B01809173048770811561F0D7011596AB
:103100008C91811539F080912A0582FF03C082E0FD
:103110000E9441042A96E1E10C94743180913B01B4
:10312000811145C0C80197558115914008F0DBC059
:10313000F801FF270A30E8F654E0EE0FFF1F5A951A
:10314000E1F79F012A533C4F6901D70115968C91F5
:10315000E553FC4F908180FB90F99083811509F431
:10316000FFC10E94C8079093690480936804F60128
:1031700082818F5F82838091720490917004892B89
:10318000838380916F048483468157816685778528
:10319000C6010E943D07D60115968C9181FDDDC1C7
:1031A000902F812F90936604809367049CC0380110
:1031B00030EE631A71085090710480917004582A9F
:1031C00080916F04582A48E06416710408F05EC0CC
:1031D00098012770332781E090E001C0880F2A957D
:1031E000EAF7311409F44FC0582AD7018D919C9108
:1031F0000E94E20321E030E0F90102C0EE0FFF1F60
:103200008A95E2F7FA87E9872091BC033091BD03E4
:103210003E832D834091C4035091C50358874F834B
:1032200063E4C62E63E0D62EA12CB12C511005C04C
:10323000D60112968C9181111BC0F601838190E01A
:1032400029853A8582239323892B91F08085982FB5
:103250009770911101C087E038E06316710408F09F
:10326000A5C0311409F49EC0869581708111A3C058
:103270009FEFA91AB90AAFE0CA0ED11CB8E0AB168D
:10328000B104A1F61CC080955822AFCF311077C091
:103290008091C4039091C5030817190781F4109217
:1032A000C5031092C4031092C0031092C103109280
:1032B000C2031092C3031092BF031092BE03809109
:1032C000BC039091BD03009709F42CCFE8E06E1683
:1032D000710408F02CC1652D0E94C906811103C03C
:1032E00081E00E949112F70185818115C9F00533B3
:1032F000FCE71F0709F462C108F04FC103333CE744
:10330000130709F455C104334CE7140709F454C1F9
:1033100002335CE7150721F410926C040E94AD0B98
:10332000D7011596DC90D11409F4F5C117FFF3C14C
:103330002801E89457F8612C712C0E944207809371
:103340006B0490916C04913029F481FF03C089E3F0
:103350000E9452118091700480936A04109270044C
:103360001092720480916C04823009F464C108F0F8
:1033700029C1811159C182EE0E94661029C11093A2
:10338000C5030093C4030E94EF086093C0037093C9
:10339000C1038093C2039093C3031092BF031092A2
:1033A000BE0323CF82FB882780F960CF311409F454
:1033B0005FCF80FF5DCFD6018D909C9008151905D9
:1033C00019F4311409F454CFED81FE81EC15FD059B
:1033D00009F44ECFD6011D96ED91FC91309721F066
:1033E0008081811509F444CF652DC6010E94C9066C
:1033F000811509F43DCF81E00815190509F080E039
:10340000482E43208114910441F0411006C0EF8101
:10341000F8858E169F0609F02BCF80E00E9491124E
:10342000D092BD03C092BC0381E08093BB038FE0C8
:103430008A9DF0018B9DF00D1124ED5BFC4F858181
:103440008093420341100EC08114910459F0808191
:1034500091819C0124503109213A310508F049C07D
:103460000E94B9078FE08A9DF0018B9DF00D112419
:10347000ED5BFC4FC680D780C6019A9581159F41B0
:1034800010F420EED22299249394C60101978F3331
:103490009E4708F0912C8FE08A9DD0018B9DB00D46
:1034A0001124AD5BBC4F1996ED91FC911A973097A2
:1034B00031F01B966D917C9181E0099598229114D1
:1034C000A9F08FE08A9DF0018B9DF00D1124ED5B3A
:1034D000FC4F868197810E94560380934103C60169
:1034E00048E06416710440F40E941D090E94040D16
:1034F0000CC00E94D110B6CF0497813A910558F4C0
:103500006C2D84EE91E00E949F07411409F40ACECD
:103510000E94040DEECD0E94040D8FE39CE90197FB
:10352000F1F700C000008C2D0E946610EECFDC0188
:103530002D913C910217130741F4311009C01092EC
:10354000BB0380E00E949112EDCD311409F4EACD65
:10355000FC01808585FDE6CDF4CF90E080E022CEB1
:10356000F9014485558566857785C9010E943D0727
:10357000D60115968C9181FFB6CEC6010E944A12E3
:1035800080916604909167040817190709F0ABCE83
:103590001092670410926604A6CE06338CE71807D3
:1035A00079F007339CE7190709F0BACE85E001C02E
:1035B00081E080936C04B2CE82E0FBCF83E0F9CF50
:1035C00084E0F7CF843009F44AC0853009F44CC058
:1035D0008FE39CE90197F1F700C00000C0906C04F4
:1035E0003CE1832E912C47E0A42EB12CD301C201E3
:1035F000082C04C0B695A795979587950A94D2F79D
:10360000E82FEF703E2ED11451F0F4E0CF1257C4E2
:103610002AE0E21708F453C480E00E94BB11832D16
:103620000E94BB11D12C52C460E070E088E193E0AD
:103630000E941A11CDCF80916B0480FD03C083E5F9
:103640000E94521182EE0E946610EFE3FCE931976E
:10365000F1F700C0000087E50E945211B9CF86EE55
:103660000E94521188E1F8CF60E070E08BE191E0B8
:103670000E941A1160E070E085E290E00E941A1149
:1036800060E070E088E290E0D3CF8430D9F18530FB
:10369000D9F180916A0480937004D70115968C91BA
:1036A000811509F42BC410926D0498013057233210
:1036B000310508F031C484E090E00E94013290931B
:1036C0002A0580932905F801E150F047E232F1051F
:1036D00008F059C0EE58FD4C0C94A2318CE20E94C7
:1036E000521180916B0481FFD4CF89E30E94521163
:1036F000D0CF82EE0E94D11080916B0480FDC9CFA3
:1037000083E5F4CF88E2F2CF60E070E088E290E0F9
:103710000E941A11BECFF801E851FC47E730F105CD
:1037200008F0BBCFEC56FD4C0C94A23106E221EE22
:1037300041EE6AE17CE78D2D0E94B316DACC07E2F8
:1037400025EE45EE6BE17CE7F6CF06E221EE40EE9A
:1037500068E17CE7F0CF07E225EE44EE69E17CE723
:10376000EACF06E221EE42EE6CE17CE7E4CF07E22D
:1037700025EE46EE6DE17CE7DECF08E221E045EE86
:103780006EE17CE7D8CF809129058160809329057F
:103790006091290570912A0584E090E00E943532FD
:1037A0000E94590DA6CC80912A05886080932A0535
:1037B000EFCF809129058260E9CF8091290584604F
:1037C000E5CF809129058860E1CF80912A0581604D
:1037D000EDCF80912A058260E9CF80912905806133
:1037E000D5CF809129058062D1CF80912905806451
:1037F000CDCF0E94590D809129058068C7CF809157
:1038000029058C60C3CF80912A058360CFCF80913A
:1038100029058E7FBBCF80912A05877FC7CF8091F6
:1038200029058D7FB3CF809129058B7FAFCF809104
:103830002905877FABCF80912A058E7FB7CF8091F6
:103840002A058D7FB3CF809129058F7E9FCF8091F0
:1038500029058F7D9BCF809129058F7B97CF0E9473
:10386000590D809129058F7791CF80912905837F0C
:103870008DCF80912A058C7F99CF8091290599273A
:1038800082FF939590FB82F990FB83F97FCF809123
:103890002A05982F909590FB80F990FB81F986CFAF
:1038A00090912905892F8F7B96FF80646FCF0E94AE
:1038B000590D90912905892F97FB87F9805866CF7C
:1038C00061E08EE090E00E94173262CF60E0F9CFB5
:1038D00090912905892F8F7E94FF806157CF909119
:1038E0002905892F8E7F90FF816050CF90912A0506
:1038F000892F877F93FF886059CF89E20AC30737F2
:10390000BCE71B07F9F00837ECE71E0751F19801F7
:10391000205E32452032310550F581113FC00F71D4
:1039200081E090E09C0102C0220F331F0A95E2F76C
:103930008901622F83E090E00E941732802F0E945D
:103940008A03D7CB811549F081E00E94900343E0C0
:1039500062E081E00E941604CCCB81E00E949C03CF
:10396000F6CF811511F082E0F0CF82E0F7CF81151C
:10397000A9F00A353CE7130709F476C008F04EC0F9
:1039800001305CE7150709F46DC003308CE71807B8
:1039900009F462C001151C4709F451C0F701878181
:1039A0009085009709F464C00E9460058C01F701BE
:1039B000B580A680A2942FE0A22280917304877024
:1039C000811501F1CB2CB114F1F0812F807F80346F
:1039D00061F080E2800F8830A8F0812F807E8032F5
:1039E00021F4023078F0A11469F080912A0582FF59
:1039F00009C082E00E944104809173048770CC2446
:103A0000C3948111C12CE12FE295EF70103C08F0B6
:103A1000A5C0F0E0E556FD4C0C94A2310B35ACE7A7
:103A20001A0721F180912A05002482FF0394802D3A
:103A30000C351C4709F0B2CF0E94960BAFCF0E9405
:103A4000590DEFEFF4E32CE0E150F0402040E1F7B6
:103A500000C000000E9460096FEF7FEF80E090E0FF
:103A60000E9435320E94800D81E0E6CF80E0E4CFF5
:103A70008581C080D180811569F0C6010E94530CF8
:103A8000182F682FC6010E94AC03B601812F0E9437
:103A9000360C8ACFC6010E94E203182FF6CFF12F11
:103AA000FF70DF2E103118F0D29490EFD922B114AC
:103AB000B9F0D11469F080E2800F883010F0011164
:103AC00009C0809170048D29809370040E94040DB8
:103AD000802F42C0809172048D2980937204F6CFAA
:103AE000802F0E94D110D114C9F180E2800F88305C
:103AF00010F0011104C08D2D0E945D0406C0D09409
:103B0000809172048D21809372040E94040D26C05E
:103B1000212F2F70D22E107F103219F0D29480EF07
:103B2000D822011549F0013009F485C0B11409F417
:103B300091C0A114B9F1CCCF80912A0582FD2EC08D
:103B4000B11431F1D11439F0809170048D29809332
:103B500070040E94040D80E00E946610C11409F4F4
:103B6000D9C08091730480FDD5C0D70115961C92F1
:103B70008695869586950E949003C7010E94171727
:103B8000809173048695869586950E949C03C2C099
:103B900080E00E94D110D11409F3ADCFB11469F1C6
:103BA000A11004C08D2D0E942412D8CF31E0A312A1
:103BB00010C010916F048D2D8123D81679F20E94C8
:103BC000C80790937704809376041D2910936F049F
:103BD000C5CF45E0A412C2CF8D2D0E9424128D2D99
:103BE0000E94EC07809171049D2D9823D91609F449
:103BF000B5CF8D2980937104B1CFA11012C08D2D46
:103C00000E942E128D2D0E94EC07809171049D2D33
:103C10009823911509F4A2CFD094D822D0927104A0
:103C20009DCF51E0A5129ACF809170048D2181150E
:103C300009F494CFE4CFB11429F086E0A81608F077
:103C40008DCFB0CF95E0A91608F088CF8D2D0E94BA
:103C50002E1284CFA114D1F3093349F4AFEFB7EE9C
:103C6000E3E0A150B040E040E1F700C00000802F49
:103C70000E94D11073CF812F869586958370811510
:103C800061F0813009F06ACFC8019370B11002C0B1
:103C900080E090E00E94790761CFC8019370B11075
:103CA00002C080E090E00E94530758CF6B2D802F18
:103CB0000E942A0853CF812F8370811138C0B11020
:103CC00027C0402F429546954770440F440F802FE0
:103CD0008F70042E01C0880F0A94EAF7202F2071FC
:103CE00004FF07C02FE030E001C0220F4A95EAF739
:103CF00020951695169513701230A1F0133081F0AF
:103D000030912705113059F0822B83230E948A03BA
:103D10000E94420760E0C7010E947E0CFBC9832B12
:103D2000822BF4CF822B909127058927EFCFB114F6
:103D300051F110FFEDCF402F429546954770440F4B
:103D4000440F802F8F70042E01C0880F0A94EAF769
:103D5000202F207104FF07C02FE030E001C0220FA8
:103D60004A95EAF72095169516951370123089F04A
:103D7000133069F030912805113041F0822B8323F4
:103D80000E948D03C5CF823018F2D5CF832B822BB2
:103D9000F7CF822B909128058927F2CF1F70B1149D
:103DA00039F0812F0E949003802F0E942412B0CFFF
:103DB000802F0E942E12812F0E949C03A9CF023FC8
:103DC00071F170F4003FC9F0013F91F0B11409F4B2
:103DD00065C0A11409F45FC0802F0E94661098CFBF
:103DE000033F21F1043F91F780912A0582FD2AC00B
:103DF000812F8F71B11401F316C0B11469F0F5E091
:103E0000AF1608F085CF1F7181E090E0012E01C050
:103E1000880F0A94EAF7BECF26E0A216F2CF812FD0
:103E20008F71B110C9CF0E94900372CF80E0B1149E
:103E300009F4A6CF1F7181E0012E01C0880F0A94FA
:103E4000EAF79ECFB114C1F080917304877084307B
:103E500049F4109273041092750410927404812F27
:103E60008F71AACF35E063E0A31608F051CF812F00
:103E70008F710E94D4074CCF45E0A41640F01092F9
:103E80007304109275041092740464E0F0CF81E022
:103E90000E9441043DCF812F8F71C5CFA114F9F24B
:103EA000093349F45FEF87EE93E051508040904032
:103EB000E1F700C00000802F0E94D11029CF3110FF
:103EC000AECB34E0A316B1040CF4A9CB41E0A41AA4
:103ED000B10854E0851A91088FEFA816B80609F0CA
:103EE00085CB80916C04823009F403CC08F0CDCBF3
:103EF0008111F4CB82EE0E94D110CBCB0631BCE70E
:103F00001B0709F0FCCC80916E04811509F4F5CCF7
:103F100085E30E94B907FCCA0631ECE71E0709F0E9
:103F2000EECC809170048A7A91E0811101C090E01A
:103F300090936E0465E3811101C069E284EE91E023
:103F40000E949F07E5CAA0E0B0E0E9EAFFE10C9417
:103F5000623180911C03803108F049C080911B03BD
:103F6000811509F444C0C091CD0289E0D82E80911A
:103F7000CC028C17E1F1EC2EF12CDC9EE001112437
:103F8000FE01E253FD4F84818115B1F19181809151
:103F90001703981331C090818091160398132CC099
:103FA0008581811129C0028113818091180390912C
:103FB0001903081B190B60E086E193E00E947E0C58
:103FC0000E94971608171907B8F480911C038F7088
:103FD000806180931C03CC52DD4F88818F7080619B
:103FE000888386E193E00E9417170E943704CDB7BB
:103FF000DEB7E7E00C947E31E7012196C770B7CFBA
:10400000AFE0B0E0E6E0F0E20C945A318C0186E0DB
:10401000F801DE011A9601900D928A95E1F7F801F8
:10402000F580E48086E1882E83E0982E80911A0343
:10403000811118C0E11499F0F11409F481C1C8018B
:104040000E94B80C811509F47BC189E0F801A6E152
:10405000B3E001900D928A95E1F70E94A31FFF241F
:10406000F3946AC0A280B380D0901B0380911803A0
:10407000909119033501681A790AD11409F411C114
:10408000C080518060E086E193E00E947E0C0E9437
:1040900097166816790608F0B6C0E11401F380910E
:1040A0001703F8019181E0901C03F0E1EF1608F08E
:1040B00064C0981320C090911603F8018081981372
:1040C0001AC020911D0330911E0387819085281707
:1040D000390789F4F1104BC08E2D8F708061809369
:1040E0001C0386E193E00E94171780911C03F801DE
:1040F0008683F12C21C0F1103AC040E0652D8C2D53
:104100000E94DE0A40E0652D8C2D0E94DE0AF82E0A
:104110008111EFCF8A859B850E94A90C292F2295BA
:104120002F70903470F49F702230A0F09115B1F090
:10413000F8019681903190F48F2D2F96EFE00C943A
:1041400076312A5F2F70223068F0C8010E9417175D
:10415000FD2CF2CF911511F0811571F3805E88303E
:1041600058F3F3CF803F40F3815F8330F9CF8091E4
:104170001C03816080931C03BCCF98131EC09091D8
:104180001603F8018081981318C020911D03309107
:104190001E03878190852817390779F4F1100DC027
:1041A000E682C8010E94171789E0F801A6E1B3E092
:1041B00001900D928A95E1F752CFC8010E94B80C88
:1041C000811509F4BDC0F11409F4BAC080911C0333
:1041D000803208F43ACF80911603909117039A83A6
:1041E0008983BC82AB8280911A038D831E82EF8209
:1041F00080911D0390911E0399878887CE010196B7
:104200000E94171722CFD0901C03F0E1DF1650F464
:1042100086E193E00E94171789E0F40111928A95D4
:10422000E9F767CFE11409F41ACF90911703F80169
:10423000818198131AC0909116038081981315C03C
:1042400020911D0330911E0387819085281739071F
:1042500061F4F1100AC0D682C8010E94171789E0E4
:10426000F40111928A95E9F7FACEC8010E94B80CC0
:10427000811509F465C0F11409F462C080911C0332
:10428000803208F4E2CE80911603909117039A834E
:104290008983BC82AB8280911A038D831E82DF8268
:1042A000A7CF60E086E193E00E947E0C0E94971603
:1042B0006816790608F0B0CFE11409F4D0CEF114F5
:1042C00009F43EC090911703F801818198132EC024
:1042D000909116038081981329C020911D0330917D
:1042E0001E03878190852817390701F580911803EF
:1042F00090911903A81AB90AF8ECAF16B10408F0A6
:1043000053CF80911C0380FD4FCF803108F44CCFF8
:10431000F8018683982F907F903F09F442CF982F21
:10432000907F905F8F70892B86833BCFC8010E945E
:10433000B80C81118ACE80911C03816080931C038C
:10434000C8010E9417178BCEA2E1B0E0EAEAF1E2C1
:104350000C9465310A871B872C873D874E875F87C2
:10436000688B798B8A8BCE010A960E94002081117E
:1043700028C02091CC023091CD0289E0FE013A960E
:10438000DE01119601900D928A95E1F78E858115D7
:10439000C1F0822F90E0019687709927381719068F
:1043A000D9F099E0929FD0011124A253BD4FFE0194
:1043B000319601900D929A95E1F78093CC020E947C
:1043C000370419E08091CD029091CC02891312C07C
:1043D0006296E4E00C9481310E94590D1092CC0257
:1043E0001092CD0289E0E6E1F3E0DF011D928A95AB
:1043F000E9F7E7CF189FC001112482539D4F0E9417
:104400000020811529F38091CD0290E001968770FC
:1044100099278093CD02D6CFEF92FF920F931F93EF
:10442000CF93DF9380912405E0911402CDE08111B8
:1044300031C0CDB7DEB7E6E00C947F31D1E0DE0FBE
:10444000D0931402EE2EF12CCE9FF0011124E454EF
:10445000FB4F84818115E9F087819085892B21F4B8
:1044600081859285019659F40081118122813381E1
:10447000448155816681778180850E94A421CE9DEB
:10448000F001CF9DF00D1124E454FB4F14821092E3
:104490007204ED2F80912405E81780F21092240514
:1044A00010921402C6CFA4E0B0E0E9E5F2E20C9469
:1044B00058312091BB04298397E0992EEE24E39490
:1044C000F12C3DE0332E44E0542E66246394809119
:1044D000BA049981891308C00E940C220E948C069C
:1044E0002496E1E10C9474317981672F70E07C832C
:1044F0006B83FB01EE0FFF1FE055FB4F8081918125
:10450000989ED001999EB00D1124FD01E858FB4FF3
:10451000FA83E983248121115BC070902405ECEBC0
:10452000F4E040E050E0812C471508F04FC0A38430
:10453000B484A981BA81CD90DC900FEF1FEF412C9C
:10454000242D30E0B601640D711D640D711DDB0179
:104550006D917C916115710539F0A616B70609F0C9
:10456000980143948901ECCF0F3F1007D1F1B701B7
:10457000002E01C0660F0A94EAF7862AB701042CC0
:1045800002C0660F771F0A94E2F79B0121503109A0
:104590008216130629F5349EF001359EF00D112484
:1045A000E454FB4F989ED001999EB00D1124A85859
:1045B000BB4F12962D913C911397308727835482DD
:1045C000108211829287818715966C920E949D06B7
:1045D0008B819C8101969A8389838370898377CFAD
:1045E00014824F5F5F4F3D969FCF10922605109229
:1045F000250510923C018091BA048093BB040E946F
:104600008C060E940C220895A1E2B0E0EAE0F3E2F9
:104610000C9457314B8B5C8B6D8B7E8B8F8BD92E93
:10462000988FC92E911110927204188A198A1A8AC9
:1046300086E0FE017396DE011A9601900D928A952E
:10464000E1F79F8880912A0582FF1FC00E94C8075A
:104650002091740430917504821B930B8838934128
:1046600038F08091730482FD03C082E00E9441040F
:104670000E94C8072091760430917704821B930B27
:104680008838934110F00E9465049114D9F09E86F9
:10469000DF8661E0CE010A960E947E0C61E0CE01C9
:1046A0000A960E947E0C61E0CE010A960E947E0C62
:1046B0005C0180354CE7940799F4C11421F181E045
:1046C00080933C019E86DF860A851B852C853D856F
:1046D000492D5D2D688979898A890E94A421CDC0E0
:1046E00081355CE7950729F4C11469F00E94F52231
:1046F000E9CF82359C4739F4C11429F080913C01FF
:104700008111F4CFDCCF58E7E52E54E0F52E812C53
:10471000412C512CD7016D917C9122242A94332471
:104720003A9480E0282F30E0FB01E80FF11DE80FFC
:10473000F11D408151814115510539F0A416B5068E
:1047400009F091018F5F1901EDCF10E0BFEF2B163B
:104750003B0609F44EC0F701448110913C01411120
:1047600010E0D70115967C90159716969C91169798
:10477000C11409F40EC1111509F40BC1711017C051
:1047800021E030E0022C01C0220F0A94EAF7922BBC
:1047900016969C932091B8043091B90422333105C8
:1047A00030F422E330E03093B9042093B804E1E020
:1047B000F0E002C0EE0FFF1F8A95E2F7CF010197EC
:1047C000D70116962C912817190699F460902505A3
:1047D000709026056114710409F453C00E94C80743
:1047E00086199709C39708F44CC081E0F7018483C8
:1047F00011E0812AFFEF4F1A5F0A27E0E20EF11C59
:1048000038E04316510409F085CFC11409F41EC1E4
:10481000811409F41BC10E94C80790932605809358
:10482000250580912405883040F591E0980F9093FC
:10483000240599E0FE013A96DE01119601900D9251
:104840009A95E1F79D82DE824DE0849FC00111249C
:1048500084549B4F29E0FE013196DC0101900D92BA
:104860002A95E1F72FEF3FEFDC011A963C932E9348
:1048700019971C96BC92AE921B97A196E2E10C94FC
:1048800073319091BB043091BA04892FE0E0F0E0DD
:1048900027E0931709F44DC0692E712CD301AA0F9C
:1048A000BB1FA055BB4F4D915C915A8F498F249FE0
:1048B000D001259FB00D1124A858BB4F6D917C915C
:1048C00078A36F8F00E060E070E0AF8DB8A1A70F14
:1048D000B11DA70FB11D4D915C915C8F4B8F452B86
:1048E00001F1D7010D90BC91A02DBE8FAD8F60E07E
:1048F0000BC0A1E0A9A3AB8DBC8DA417B50709F02F
:1049000019A2B9A10B2B6F5FAD8DBE8DA60FB11D86
:10491000A60FB11D4D915C914115510551F77F5F77
:10492000D4CF011599F16717C8F421E0F70124836A
:10493000F7018093BB04EE15FF0509F45ACF832FCE
:1049400090E0FC01EE0FFF1FE055FB4F51824082CB
:104950000196837099278093BA044BCF498D5A8D65
:10496000249FF001259FF00D1124E858FB4F51E0E2
:104970005483EE15FF05E1F2981302C08F5F837038
:10498000A3014F5F5F4F942F937083CFE0E0F0E07F
:10499000F7CF292F30E0711021C061E070E002C034
:1049A000660F771F8A95E2F7CB0101972817390721
:1049B00079F010E081E090E0022C01C0880F0A94A9
:1049C000EAF7982F9095F70186818923868311CF86
:1049D000411581F3C2010E949D06EBCFA901022C73
:1049E00002C0559547950A94E2F7C90101978223C1
:1049F0009323892B41F540FF26C0D70112968D9154
:104A00009C91892BD9F087E0FE013196DF011D9240
:104A10008A95E9F70E94C8079C018B839C8384E0F8
:104A20008D83F70192818381792F98878987098106
:104A30001A8144E05E816F810E94A421D7011596FE
:104A40001C92172DB7CF142F1170B4CF9091BB04C7
:104A50008091BA04981739F00E945322B1E08B1666
:104A600009F40BCF2FCE0E940C2210922605109233
:104A700025050E948C06F2CFA6E0B0E0E2E4F5E264
:104A80000C9465310E94C8078C018091C0029091FE
:104A9000C1028017910779F019821A820E94C80713
:104AA000BC0149815A8180E090E00E940423109368
:104AB000C1020093C0022696E4E00C948131A6E086
:104AC000B0E0E5E6F5E20C9467319C019093BD02FD
:104AD0008093BC02211580E2380738F4C9010E9496
:104AE000BB102696E2E00C94833180EF89838A83A1
:104AF0000E94C8078160BC0149815A8181E091E030
:104B00000E940423EECFA6E0B0E0E9E8F5E20C94C1
:104B100067319C019093BD028093BC02211580E215
:104B2000380738F4C9010E9404112696E2E00C947B
:104B3000833180EF89838A830E94C8078160BC012A
:104B400049815A8181E090E00E940423EECFCF9307
:104B5000DF93D82FC92F0E945F258D2F9C2F0E9495
:104B60008325DF91CF9108950F931F93CF93DF9308
:104B70008C01862F67E373E00E948216892BA9F4CB
:104B8000C0913703D0913803209779F0F8018281E2
:104B9000833051F4CE010E94A725CE010E94A725A3
:104BA000CE010E94A72501C0D8F7DF91CF911F91B8
:104BB0000F9108950F931F93CF93DF938C01EB0117
:104BC00067E373E08C2F0E948216892B09F05AC08C
:104BD000FE01FF27D80112968C911297EA59FD4FDA
:104BE0008130A9F415968C9182FD51C080FF4FC091
:104BF00082E080838091390390913A030097B9F461
:104C000080913703909138030097E1F110C0823012
:104C1000B9F515968C9182FD28C080FD0BC083E00C
:104C2000808380913B0390913C03009701F10E94A7
:104C30005F2528C084E0808380913D0390913E03EE
:104C40000097A9F78091370390913803009711F1ED
:104C50000E94A7258091390390913A03009739F774
:104C60008091370390913803E2CF85E08083809173
:104C7000370390913803009729F00E94A725F0CFC1
:104C800086E08083DF91CF911F910F91089581E09D
:104C90008083B6CF8091390390913A03B5CF0F93BB
:104CA0001F93CF93DF938C01EB0167E373E08C2FAD
:104CB0000E948216892B71F4DD27CA59DD4F888145
:104CC000F801128218828330F1F048F4813059F0F3
:104CD000823081F0DF91CF911F910F910895843040
:104CE000B9F08530B9F78091370390913803009778
:104CF00089F306C08091390390913A03009799F3A4
:104D00000E948325E7CF80913B0390913C03F6CF2F
:104D100080913D0390913E03009791F720913703D6
:104D2000309138038091390390913A032115310570
:104D3000F1F2009729F7C901E3CFCDB7DEB7AA9703
:104D40000FB6F894DEBF0FBECDBF85B7806885BFB4
:104D500085B7806885BF84B7877F84BF0FB6F89416
:104D6000A895809160008861809360001092600037
:104D70000FBE80E890E00FB6F894809361009093A6
:104D800061000FBE81E08093030183E696E090937B
:104D9000E3018093E2010E9474060E94BF150E9405
:104DA00003160E941B0A0E94830A8091E20084601D
:104DB0008093E20078948091A002811599F080910F
:104DC000E9001091EC008F70179511271795182B9B
:104DD0001092E9008091E80083FD0E94960D1F70FB
:104DE0001093E90082E084BD93E095BD9AEF97BDF2
:104DF00080936E001092B8021092B9021092BA021B
:104E00001092BB020E94EB0C811102C00E94AF15F0
:104E10008091D80080618093D8002AE12A95F1F72B
:104E200000C08091D900182F117080FD04C00E942D
:104E30001B0A1092A0021093B6021093B7021093AF
:104E4000180111110E94F52F80911801811112C0D3
:104E500084E1EDE3F1E0DE01119601900D928A9577
:104E6000E1F784E1FE013196A4E0B1E001900D92FA
:104E70008A95E1F78091180191E08927880F880FC2
:104E80008093790294E0981B9093780224E031E0BB
:104E900068E171E001E010E0D90140E050E08D915F
:104EA0008F3FA1F0E82FE295EF70F0E0F1A08F7056
:104EB000680102C0CC0CDD1C8A95E2F7C6019C2D6E
:104EC00090959F2191A392A1892B82A34F5F5F4F61
:104ED0004530510521F72B5F3F4F62177307E1F60D
:104EE00088E0E6E9F2E0DF01C82E1D92CA94E9F7F6
:104EF000E0E7F2E0DF011D928A95E9F780E090E0BB
:104F00000E940132853E9E4F21F40E94EB0C8111DC
:104F100063C065EE7EEF80E090E00E94353260E095
:104F200082E090E00E94173281E08093270561E0E3
:104F300083E090E00E94173260E074E184E090E04A
:104F40000E94353260E086E090E00E94173260E017
:104F500087E090E00E94173240E050E0BA0188E01C
:104F600090E00E94293260E083E290E00E941732D4
:104F700060E08CE090E00E94173260E08DE090E00D
:104F80000E94173219821A821B821C821D821E8285
:104F90001F82188648E050E067E170E0CE0101967C
:104FA0000E94073240E050E0BA018FE190E00E9499
:104FB000293280E00E94EB0B0E94AF1540E050E0E8
:104FC000BA018FE090E00E94293240E050E0BA013F
:104FD00083E190E00E94293282E090E00E94F93162
:104FE00080937C0284E090E00E94013290932A0535
:104FF000809329050E94F012EFEFF6E721E0E150DF
:10500000F0402040E1F700C000000E94F0128091C3
:10501000B70291E08927880F880FE82FF0E0EA5661
:10502000FD4F208130E041E050E0BA0102C0660F40
:10503000771F8A95E2F7CB0182239323892B41F0D6
:105040006FEF7FEF80E090E00E9435320E946009B0
:1050500083E090E00E94F9310E948A038CE090E0A6
:105060000E94F93180936C048091B602811102C0D4
:105070000E94F82F89E191E09093C3028093C202CD
:10508000AEE92A2EA2E03A2EB5E84B2EB2E05B2E16
:105090008091A002853049F48091A002853009F406
:1050A0004FC00E94590D0E9442070E94F0120DE766
:1050B00012E0F6E9EF2EF2E0FF2ED701F801919110
:1050C0008D914E165F0609F46EC09817C1F380905B
:1050D000B602D12CD701CD907D01F80191908F01BE
:1050E0009C1439F19C24B12CAA24A394892D8A21E3
:1050F0008115C1F08114B1F0B982DA820E94C8072B
:105100009C838B83F1E0FD8391E08C2D8A218111BA
:1051100001C090E09E8349815A816B817C818D81A1
:105120000E940423B394AA0C25E0B212DFCFF80149
:10513000C292D39438E0D312CDCF0E94FB0837C07F
:105140008091A002843021F110927A0288E190E0EF
:10515000A0E40FB6F894A895809360000FBEA093CA
:10516000600083B7817F846083BF83B7816083BF22
:105170007894889583B78E7F83BF0FB6F894A895EF
:1051800080916000886180936000109260000FBE83
:105190000E94F012E6E9F2E08191811132C52E16EB
:1051A0003F06D1F779CF981392CF0E943C2580918A
:1051B000B602811509F48CC00091BE031091BF03A3
:1051C0000115110591F1C0908902D0908A02E090FA
:1051D0008B02F0908C020E94EF086C197D098E09F9
:1051E0009F09C0908502D0908602E0908702F090DF
:1051F00088026C157D058E059F05B8F0C8010E94D8
:10520000BB101092BF031092BE031092890210923D
:105210008A0210928B0210928C02109285021092D8
:1052200086021092870210928802E0906604F09045
:105230006704E114F10429F1C0906804D090690476
:105240000E94C8078C010C191D09C7010E949716FE
:1052500080179107B0F42091660430916704C9016A
:1052600099272A3008F04CC1E4E0880F991FEA958D
:10527000E1F78A539C4FDC0115962C9122FF0E9486
:10528000671280913C01811519F10091250510915B
:10529000260501151105E1F00E94C807801B910B3E
:1052A0002091B8043091B9042817390788F49091F7
:1052B000BB048091BA04981709F425C10E945322B7
:1052C0001092B9041092B804109226051092250588
:1052D00086E0E1E3F3E0DE01119601900D928A95FC
:1052E000E1F7B09032031091330300913403C09082
:1052F0003503D0903603109233031092340310928A
:10530000350310923603812F802B811509F441C09B
:10531000E0908F02F09090020E94C8079C012E1925
:105320003F0990912F03911509F466C42531310589
:1053300080F19F3F19F09F5F90932F03111559F053
:105340000E94F80691E011160CF09FEF899F802DC6
:10535000112480933303011559F00E94F80691E05F
:1053600010160CF09FEF899F802D11248093340339
:1053700080913303811569F0F0903403F11449F002
:105380000E94EA06809333038F2D0E94EA068093E1
:1053900034038C2D8D29811509F441C0E0908D02D4
:1053A000F0908E020E94C8079C012E193F0990912F
:1053B0002E03911509F41BC42135310580F19F3F5F
:1053C00019F09F5F90932E03C11459F00E941807A3
:1053D00091E01C140CF09FEF899F802D1124809385
:1053E0003503D11459F00E94180791E01D140CF0F8
:1053F0009FEF899F802D1124809336038091350380
:10540000811569F0F0903603F11449F00E94EA0624
:10541000809335038F2D0E94EA0680933603809196
:1054200032038B1119C080913303811511F01813C9
:1054300013C020913403211511F020130DC0909159
:105440003603911511F09D1107C0309135033111CC
:1054500003C0822B892B81110E94020886E0FE0185
:105460003196A1E3B3E001900D928A95E1F70E9495
:10547000420790919102891721F0809391020E9436
:10548000EF088091A002843009F002CE83E080937F
:10549000E9008091E80082FFFBCD8091E80090E078
:1054A00085FF0BC00E94EA0970E2E72EF12C8E0105
:1054B0000F5F1F4F8115C9F191E08091E8008B7754
:1054C0008093E800911509F4E3CD0091BE0210919C
:1054D000BF02E98101151105B1F1EE3F09F057C096
:1054E0008A81833020F08550833008F050C0EA81F3
:1054F000EE3008F04CC0F0E0E955FD4C0C94A231C0
:1055000080E090E0B8CE0E940C2210922605109206
:1055100025050E948C06DCCE8091F100F801819374
:105520008F01F1E0EF1AF10839F28091E80085FD72
:10553000F3CF8091E8008B778093E8000E94EA091E
:10554000811599F3B9CFE43150F4E11551F0E150F0
:10555000E33138F4F0E0EB54FD4C0C94A231EE3F13
:1055600031F28FEF898313C01A8289E08B830FC0D9
:105570008A818230A9F08330E1F0813091F70E9476
:10558000EF080E94A8316B837C838D839E8340E269
:1055900050E0BE016F5F7F4F82E00E94FD0A78CD30
:1055A00087E290E00E94F9311B821C821D828E836B
:1055B000EECF80919E0290919F02892B41F388E06B
:1055C000E6E9F2E0DE01139601900D928A95E1F78B
:1055D000DECF8A81823029F66B817C818D819E812C
:1055E0000E94A83187E290E00E941732D0CF4C8110
:1055F0006B818A810E94070C9827892798279E83B0
:105600008D83C5CF2D813E813227232732274C81C0
:105610006B818A810E94B40BBACF0E942515B7CF47
:1056200080E18A83B4CF1A8284EFA0CF8C81E82EE8
:10563000F12C8D3108F0ABCF0A811B811027012797
:105640001027E00EF11E6E0125E0C20ED11C0E15D2
:105650001F0509F49CCF80E0043F110528F4C80120
:10566000845F9C4F0E94F931D6018D936D010F5FCD
:105670001F4FEDCF80919E0290919F02892B09F4DC
:1056800086CF8C81C82ED12C8D3108F080CF0A8135
:105690001B81102701271027FE0131967F01CE0EB6
:1056A000DF1ECE14DF0409F472CF043F110540F46D
:1056B000D70114966C91C801845F9C4F0E941732E9
:1056C0000F5F1F4FBFEFEB1AFB0AEBCF0E94DB0B04
:1056D0005ECF86E0A6CF8C81E82EF12C8D3108F0CC
:1056E00056CF0A811B81102701271027E00EF11EDB
:1056F0006E01E5E0CE0ED11C0E151F0509F447CF53
:1057000080E0003EF1E01F0720F4C80188960E9467
:10571000F931D6018D936D010F5F1F4FEDCF8C8155
:10572000E82EF12C8D3108F032CF0A811B81102731
:1057300001271027003EB1E01B0708F028CF80EEBC
:1057400091E0801B910B8E159F0508F420CF80916E
:105750009E0290919F02892BE1F54801E8E28E0EAE
:10576000911C00FBCC24DD24C0F800FF0DC0C80153
:1057700087960E94F9319D8189279827892781156D
:105780009C4711F48FEF8D83C8018E0D9F1D57012B
:1057900080FF17C021E0A21AB10865E0662E712CC7
:1057A0006C0E7D1E6A0C7B1CC4018E0D9F1D0E9419
:1057B000F931D3019C9181159C4719F48FEFF301C6
:1057C0008083FE013196EC0DFD1D2FEFCA14DB0422
:1057D00030F0FE0131966F01EE0EFF1E1CC0948169
:1057E000858181159C4711F42483258362E0C60ED0
:1057F000D11C3296EBCF003E71E0170738F4D6018A
:1058000014966C91C80188960E9417320F5F1F4F43
:10581000BFEFCB1ADB0ACE14DF0469F7B8CE809154
:105820009E0290919F02892B09F4B1CE40E250E094
:10583000BE016F5F7F4F82E00E94FD0A3FEF61EE85
:1058400074E0315060407040E1F700C00000FECBD2
:1058500088E0E1E5F1E0DE01919601900D928A95F4
:10586000E1F7FE0132968FE1DF011D928A95E9F79B
:1058700086E0898388E07F96DE011596A5CE8CE9C7
:10588000898381E08A831B821C8281CE8B819C81EB
:10589000092E000CAA0BBB0B55E0880F991FAA1FFD
:1058A000BB1F5A95D1F7AC01BD01405E5F4F6F4FF2
:1058B0007F4F481759076A077B0708F468CE8C3971
:1058C000E1E09E07A105B10508F061CE4D39F1E098
:1058D0005F076105710520F04CE951E060E070E080
:1058E000481B590BBC016E527B4FCE0101960E94A2
:1058F000C3314DCE44E150E06FEF70E0CE010D9624
:105900000E94E23180919E0289830A8382E08B8328
:105910001C8293E09D8391E09E831F8218861986E6
:105920008A871B8684E08C8732CE81E090E090935A
:10593000BF028093BE0282E390E090939502809331
:1059400094020E94C80790939302809392021FCE04
:105950000115110509F455C0E9E6F1E02EE6C22E65
:1059600021E0D22E2EE631E0EE24E394F12C41E04A
:1059700050E08191D6016D916D0170E06A567D4FC6
:10598000DB016C9170E0DA0102C0AA0FBB1F8A959F
:10599000E2F7CD018623972361E070E0892B11F4B3
:1059A00060E070E0E622F7222E173F0711F7C09063
:1059B0009202D09093020E94C8078C199D098536E7
:1059C000910530F1EF2821F10E94C80790939302CE
:1059D0008093920280919402909195020197909306
:1059E000950280939402892B61F41092BF02109269
:1059F000BE0281E090E090939F0280939E0200E0BF
:105A000010E080919E0289830A8380919402AECD3A
:105A100082E390E09093950280939402F2CF1092EB
:105A20009F0210929E02B3CD40E250E06FEF70E013
:105A3000CE0101960E94E231AACDEB81E73008F059
:105A4000A6CDF0E0E853FD4C0C94A231FE01349653
:105A50008DE1DF011D928A95E9F78AE0898388E06C
:105A60008A8384CD8C819AE0F92E8E010F5D1F4FC1
:105A7000F801CF2C1192CA94E9F7B8010E9482165E
:105A80008983F801DE01129601900D92FA94E1F7F4
:105A90007ECD1C818AE0FE013596DE019196019053
:105AA0000D928A95E1F789A19AA10E9465069AA3B1
:105AB00089A38BA19CA10E9465069CA38BA38DA1A9
:105AC0009EA10E9465069EA38DA38FA198A50E940A
:105AD000650698A78FA38FEF1A3068F42AE0129F0B
